{"abi":[{"type":"constructor","inputs":[{"name":"_maxSupply","type":"uint256","internalType":"uint256"},{"name":"_maxDailyMint","type":"uint256","internalType":"uint256"},{"name":"_expirationTime","type":"uint256","internalType":"uint256"},{"name":"_mintingAdmins","type":"address[]","internalType":"address[]"},{"name":"_restrAdmins","type":"address[]","internalType":"address[]"},{"name":"_idpAdmins","type":"address[]","internalType":"address[]"},{"name":"_identityProviders","type":"address[]","internalType":"address[]"}],"stateMutability":"nonpayable"},{"type":"function","name":"addIdentityProvider","inputs":[{"name":"provider","type":"address","internalType":"address"}],"outputs":[],"stateMutability":"nonpayable"},{"type":"function","name":"addVerifiedAddress","inputs":[{"name":"user","type":"address","internalType":"address"},{"name":"timestamp","type":"uint256","internalType":"uint256"}],"outputs":[],"stateMutability":"nonpayable"},{"type":"function","name":"allowance","inputs":[{"name":"owner","type":"address","internalType":"address"},{"name":"spender","type":"address","internalType":"address"}],"outputs":[{"name":"","type":"uint256","internalType":"uint256"}],"stateMutability":"view"},{"type":"function","name":"approve","inputs":[{"name":"spender","type":"address","internalType":"address"},{"name":"value","type":"uint256","internalType":"uint256"}],"outputs":[{"name":"","type":"bool","internalType":"bool"}],"stateMutability":"nonpayable"},{"type":"function","name":"balanceOf","inputs":[{"name":"account","type":"address","internalType":"address"}],"outputs":[{"name":"","type":"uint256","internalType":"uint256"}],"stateMutability":"view"},{"type":"function","name":"blockAddress","inputs":[{"name":"user","type":"address","internalType":"address"}],"outputs":[],"stateMutability":"nonpayable"},{"type":"function","name":"blockedAddresses","inputs":[{"name":"","type":"address","internalType":"address"}],"outputs":[{"name":"","type":"bool","internalType":"bool"}],"stateMutability":"view"},{"type":"function","name":"dailyMintedAmount","inputs":[{"name":"","type":"address","internalType":"address"}],"outputs":[{"name":"","type":"uint256","internalType":"uint256"}],"stateMutability":"view"},{"type":"function","name":"dailyTransferLimit","inputs":[{"name":"","type":"address","internalType":"address"}],"outputs":[{"name":"","type":"uint256","internalType":"uint256"}],"stateMutability":"view"},{"type":"function","name":"dailyTransferredAmount","inputs":[{"name":"","type":"address","internalType":"address"}],"outputs":[{"name":"","type":"uint256","internalType":"uint256"}],"stateMutability":"view"},{"type":"function","name":"decimals","inputs":[],"outputs":[{"name":"","type":"uint8","internalType":"uint8"}],"stateMutability":"view"},{"type":"function","name":"expirationTime","inputs":[],"outputs":[{"name":"","type":"uint256","internalType":"uint256"}],"stateMutability":"view"},{"type":"function","name":"idpAdminCount","inputs":[],"outputs":[{"name":"","type":"uint256","internalType":"uint256"}],"stateMutability":"view"},{"type":"function","name":"idpAdminVotes","inputs":[{"name":"","type":"address","internalType":"address"},{"name":"","type":"address","internalType":"address"}],"outputs":[{"name":"","type":"bool","internalType":"bool"}],"stateMutability":"view"},{"type":"function","name":"idpAdminVotesList","inputs":[{"name":"","type":"address","internalType":"address"},{"name":"","type":"uint256","internalType":"uint256"}],"outputs":[{"name":"","type":"address","internalType":"address"}],"stateMutability":"view"},{"type":"function","name":"idpAdmins","inputs":[{"name":"","type":"address","internalType":"address"}],"outputs":[{"name":"","type":"bool","internalType":"bool"}],"stateMutability":"view"},{"type":"function","name":"isVerified","inputs":[{"name":"user","type":"address","internalType":"address"}],"outputs":[{"name":"","type":"bool","internalType":"bool"}],"stateMutability":"view"},{"type":"function","name":"lastDailyMintResetTimestamp","inputs":[{"name":"","type":"address","internalType":"address"}],"outputs":[{"name":"","type":"uint256","internalType":"uint256"}],"stateMutability":"view"},{"type":"function","name":"lastTransferResetTimestamp","inputs":[{"name":"","type":"address","internalType":"address"}],"outputs":[{"name":"","type":"uint256","internalType":"uint256"}],"stateMutability":"view"},{"type":"function","name":"maxDailyMint","inputs":[],"outputs":[{"name":"","type":"uint256","internalType":"uint256"}],"stateMutability":"view"},{"type":"function","name":"maxSupply","inputs":[],"outputs":[{"name":"","type":"uint256","internalType":"uint256"}],"stateMutability":"view"},{"type":"function","name":"mint","inputs":[{"name":"to","type":"address","internalType":"address"},{"name":"amount","type":"uint256","internalType":"uint256"}],"outputs":[],"stateMutability":"nonpayable"},{"type":"function","name":"mintinAdminVotes","inputs":[{"name":"","type":"address","internalType":"address"},{"name":"","type":"address","internalType":"address"}],"outputs":[{"name":"","type":"bool","internalType":"bool"}],"stateMutability":"view"},{"type":"function","name":"mintingAdminCount","inputs":[],"outputs":[{"name":"","type":"uint256","internalType":"uint256"}],"stateMutability":"view"},{"type":"function","name":"mintingAdminVotesList","inputs":[{"name":"","type":"address","internalType":"address"},{"name":"","type":"uint256","internalType":"uint256"}],"outputs":[{"name":"","type":"address","internalType":"address"}],"stateMutability":"view"},{"type":"function","name":"mintingAdmins","inputs":[{"name":"","type":"address","internalType":"address"}],"outputs":[{"name":"","type":"bool","internalType":"bool"}],"stateMutability":"view"},{"type":"function","name":"name","inputs":[],"outputs":[{"name":"","type":"string","internalType":"string"}],"stateMutability":"view"},{"type":"function","name":"removeIdentityProvider","inputs":[{"name":"provider","type":"address","internalType":"address"}],"outputs":[],"stateMutability":"nonpayable"},{"type":"function","name":"removeVerifiedAddress","inputs":[{"name":"user","type":"address","internalType":"address"}],"outputs":[],"stateMutability":"nonpayable"},{"type":"function","name":"restrAdminCount","inputs":[],"outputs":[{"name":"","type":"uint256","internalType":"uint256"}],"stateMutability":"view"},{"type":"function","name":"restrAdminVotes","inputs":[{"name":"","type":"address","internalType":"address"},{"name":"","type":"address","internalType":"address"}],"outputs":[{"name":"","type":"bool","internalType":"bool"}],"stateMutability":"view"},{"type":"function","name":"restrAdminVotesList","inputs":[{"name":"","type":"address","internalType":"address"},{"name":"","type":"uint256","internalType":"uint256"}],"outputs":[{"name":"","type":"address","internalType":"address"}],"stateMutability":"view"},{"type":"function","name":"restrAdmins","inputs":[{"name":"","type":"address","internalType":"address"}],"outputs":[{"name":"","type":"bool","internalType":"bool"}],"stateMutability":"view"},{"type":"function","name":"setDailyTransferLimit","inputs":[{"name":"user","type":"address","internalType":"address"},{"name":"limit","type":"uint256","internalType":"uint256"}],"outputs":[],"stateMutability":"nonpayable"},{"type":"function","name":"symbol","inputs":[],"outputs":[{"name":"","type":"string","internalType":"string"}],"stateMutability":"view"},{"type":"function","name":"totalSupply","inputs":[],"outputs":[{"name":"","type":"uint256","internalType":"uint256"}],"stateMutability":"view"},{"type":"function","name":"transfer","inputs":[{"name":"to","type":"address","internalType":"address"},{"name":"amount","type":"uint256","internalType":"uint256"}],"outputs":[{"name":"","type":"bool","internalType":"bool"}],"stateMutability":"nonpayable"},{"type":"function","name":"transfer","inputs":[{"name":"from","type":"address","internalType":"address"},{"name":"to","type":"address","internalType":"address"},{"name":"amount","type":"uint256","internalType":"uint256"}],"outputs":[],"stateMutability":"nonpayable"},{"type":"function","name":"transferFrom","inputs":[{"name":"from","type":"address","internalType":"address"},{"name":"to","type":"address","internalType":"address"},{"name":"amount","type":"uint256","internalType":"uint256"}],"outputs":[{"name":"","type":"bool","internalType":"bool"}],"stateMutability":"nonpayable"},{"type":"function","name":"trustedIdentityProviders","inputs":[{"name":"","type":"address","internalType":"address"}],"outputs":[{"name":"","type":"bool","internalType":"bool"}],"stateMutability":"view"},{"type":"function","name":"unblockAddress","inputs":[{"name":"user","type":"address","internalType":"address"}],"outputs":[],"stateMutability":"nonpayable"},{"type":"function","name":"verifiedAddresses","inputs":[{"name":"","type":"address","internalType":"address"}],"outputs":[{"name":"","type":"uint256","internalType":"uint256"}],"stateMutability":"view"},{"type":"function","name":"verifyIdentity","inputs":[{"name":"timestamp","type":"uint256","internalType":"uint256"},{"name":"signature","type":"bytes","internalType":"bytes"}],"outputs":[],"stateMutability":"nonpayable"},{"type":"function","name":"voteIDPAdmin","inputs":[{"name":"user","type":"address","internalType":"address"}],"outputs":[],"stateMutability":"nonpayable"},{"type":"function","name":"voteMintingAdmin","inputs":[{"name":"user","type":"address","internalType":"address"}],"outputs":[],"stateMutability":"nonpayable"},{"type":"function","name":"voteRestrAdmin","inputs":[{"name":"user","type":"address","internalType":"address"}],"outputs":[],"stateMutability":"nonpayable"},{"type":"event","name":"AddressBlocked","inputs":[{"name":"user","type":"address","indexed":true,"internalType":"address"}],"anonymous":false},{"type":"event","name":"AddressUnblocked","inputs":[{"name":"user","type":"address","indexed":true,"internalType":"address"}],"anonymous":false},{"type":"event","name":"AdminStatusChanged","inputs":[{"name":"admin","type":"address","indexed":true,"internalType":"address"},{"name":"adminType","type":"string","indexed":false,"internalType":"string"},{"name":"isAdmin","type":"bool","indexed":false,"internalType":"bool"}],"anonymous":false},{"type":"event","name":"Approval","inputs":[{"name":"owner","type":"address","indexed":true,"internalType":"address"},{"name":"spender","type":"address","indexed":true,"internalType":"address"},{"name":"value","type":"uint256","indexed":false,"internalType":"uint256"}],"anonymous":false},{"type":"event","name":"IdentityProviderAdded","inputs":[{"name":"provider","type":"address","indexed":true,"internalType":"address"}],"anonymous":false},{"type":"event","name":"IdentityProviderRemoved","inputs":[{"name":"provider","type":"address","indexed":true,"internalType":"address"}],"anonymous":false},{"type":"event","name":"IdentityVerified","inputs":[{"name":"user","type":"address","indexed":true,"internalType":"address"},{"name":"timestamp","type":"uint256","indexed":false,"internalType":"uint256"}],"anonymous":false},{"type":"event","name":"TokensMinted","inputs":[{"name":"to","type":"address","indexed":true,"internalType":"address"},{"name":"amount","type":"uint256","indexed":false,"internalType":"uint256"}],"anonymous":false},{"type":"event","name":"TokensTransferred","inputs":[{"name":"from","type":"address","indexed":true,"internalType":"address"},{"name":"to","type":"address","indexed":true,"internalType":"address"},{"name":"amount","type":"uint256","indexed":false,"internalType":"uint256"}],"anonymous":false},{"type":"event","name":"Transfer","inputs":[{"name":"from","type":"address","indexed":true,"internalType":"address"},{"name":"to","type":"address","indexed":true,"internalType":"address"},{"name":"value","type":"uint256","indexed":false,"internalType":"uint256"}],"anonymous":false},{"type":"event","name":"TransferLimitSet","inputs":[{"name":"user","type":"address","indexed":true,"internalType":"address"},{"name":"limit","type":"uint256","indexed":false,"internalType":"uint256"}],"anonymous":false},{"type":"error","name":"ECDSAInvalidSignature","inputs":[]},{"type":"error","name":"ECDSAInvalidSignatureLength","inputs":[{"name":"length","type":"uint256","internalType":"uint256"}]},{"type":"error","name":"ECDSAInvalidSignatureS","inputs":[{"name":"s","type":"bytes32","internalType":"bytes32"}]},{"type":"error","name":"ERC20InsufficientAllowance","inputs":[{"name":"spender","type":"address","internalType":"address"},{"name":"allowance","type":"uint256","internalType":"uint256"},{"name":"needed","type":"uint256","internalType":"uint256"}]},{"type":"error","name":"ERC20InsufficientBalance","inputs":[{"name":"sender","type":"address","internalType":"address"},{"name":"balance","type":"uint256","internalType":"uint256"},{"name":"needed","type":"uint256","internalType":"uint256"}]},{"type":"error","name":"ERC20InvalidApprover","inputs":[{"name":"approver","type":"address","internalType":"address"}]},{"type":"error","name":"ERC20InvalidReceiver","inputs":[{"name":"receiver","type":"address","internalType":"address"}]},{"type":"error","name":"ERC20InvalidSender","inputs":[{"name":"sender","type":"address","internalType":"address"}]},{"type":"error","name":"ERC20InvalidSpender","inputs":[{"name":"spender","type":"address","internalType":"address"}]}],"bytecode":{"object":"0x60e060405234801561000f575f5ffd5b506040516158c23803806158c28339818101604052810190610031919061058e565b85858286868684848484848282826040518060400160405280600b81526020017f424441323520546f6b656e0000000000000000000000000000000000000000008152506040518060400160405280600581526020017f424441323500000000000000000000000000000000000000000000000000000081525081600390816100ba91906108a2565b5080600490816100ca91906108a2565b5050505f5f90505b835181101561015757600160055f8684815181106100f3576100f2610971565b5b602002602001015173ffffffffffffffffffffffffffffffffffffffff1673ffffffffffffffffffffffffffffffffffffffff1681526020019081526020015f205f6101000a81548160ff02191690831515021790555080806001019150506100d2565b5082516008819055505f5f90505b82518110156101ea57600160065f85848151811061018657610185610971565b5b602002602001015173ffffffffffffffffffffffffffffffffffffffff1673ffffffffffffffffffffffffffffffffffffffff1681526020019081526020015f205f6101000a81548160ff0219169083151502179055508080600101915050610165565b5081516009819055505f5f90505b815181101561027d57600160075f84848151811061021957610218610971565b5b602002602001015173ffffffffffffffffffffffffffffffffffffffff1673ffffffffffffffffffffffffffffffffffffffff1681526020019081526020015f205f6101000a81548160ff02191690831515021790555080806001019150506101f8565b508051600a8190555050505084608081815250505f5f90505b845181101561037857600160115f8784815181106102b7576102b6610971565b5b602002602001015173ffffffffffffffffffffffffffffffffffffffff1673ffffffffffffffffffffffffffffffffffffffff1681526020019081526020015f205f6101000a81548160ff02191690831515021790555084818151811061032157610320610971565b5b602002602001015173ffffffffffffffffffffffffffffffffffffffff167fa885c0a202d9c728f3e159840be354fe62d3ba5a40e54fa169c3adcf08cf489960405160405180910390a28080600101915050610296565b5050505050508560a081815250505050505050508660c081815250505050505050505061099e565b5f604051905090565b5f5ffd5b5f5ffd5b5f819050919050565b6103c3816103b1565b81146103cd575f5ffd5b50565b5f815190506103de816103ba565b92915050565b5f5ffd5b5f601f19601f8301169050919050565b7f4e487b71000000000000000000000000000000000000000000000000000000005f52604160045260245ffd5b61042e826103e8565b810181811067ffffffffffffffff8211171561044d5761044c6103f8565b5b80604052505050565b5f61045f6103a0565b905061046b8282610425565b919050565b5f67ffffffffffffffff82111561048a576104896103f8565b5b602082029050602081019050919050565b5f5ffd5b5f73ffffffffffffffffffffffffffffffffffffffff82169050919050565b5f6104c88261049f565b9050919050565b6104d8816104be565b81146104e2575f5ffd5b50565b5f815190506104f3816104cf565b92915050565b5f61050b61050684610470565b610456565b9050808382526020820190506020840283018581111561052e5761052d61049b565b5b835b81811015610557578061054388826104e5565b845260208401935050602081019050610530565b5050509392505050565b5f82601f830112610575576105746103e4565b5b81516105858482602086016104f9565b91505092915050565b5f5f5f5f5f5f5f60e0888a0312156105a9576105a86103a9565b5b5f6105b68a828b016103d0565b97505060206105c78a828b016103d0565b96505060406105d88a828b016103d0565b955050606088015167ffffffffffffffff8111156105f9576105f86103ad565b5b6106058a828b01610561565b945050608088015167ffffffffffffffff811115610626576106256103ad565b5b6106328a828b01610561565b93505060a088015167ffffffffffffffff811115610653576106526103ad565b5b61065f8a828b01610561565b92505060c088015167ffffffffffffffff8111156106805761067f6103ad565b5b61068c8a828b01610561565b91505092959891949750929550565b5f81519050919050565b7f4e487b71000000000000000000000000000000000000000000000000000000005f52602260045260245ffd5b5f60028204905060018216806106e957607f821691505b6020821081036106fc576106fb6106a5565b5b50919050565b5f819050815f5260205f209050919050565b5f6020601f8301049050919050565b5f82821b905092915050565b5f6008830261075e7fffffffffffffffffffffffffffffffffffffffffffffffffffffffffffffffff82610723565b6107688683610723565b95508019841693508086168417925050509392505050565b5f819050919050565b5f6107a361079e610799846103b1565b610780565b6103b1565b9050919050565b5f819050919050565b6107bc83610789565b6107d06107c8826107aa565b84845461072f565b825550505050565b5f5f905090565b6107e76107d8565b6107f28184846107b3565b505050565b5b818110156108155761080a5f826107df565b6001810190506107f8565b5050565b601f82111561085a5761082b81610702565b61083484610714565b81016020851015610843578190505b61085761084f85610714565b8301826107f7565b50505b505050565b5f82821c905092915050565b5f61087a5f198460080261085f565b1980831691505092915050565b5f610892838361086b565b9150826002028217905092915050565b6108ab8261069b565b67ffffffffffffffff8111156108c4576108c36103f8565b5b6108ce82546106d2565b6108d9828285610819565b5f60209050601f83116001811461090a575f84156108f8578287015190505b6109028582610887565b865550610969565b601f19841661091886610702565b5f5b8281101561093f5784890151825560018201915060208501945060208101905061091a565b8683101561095c5784890151610958601f89168261086b565b8355505b6001600288020188555050505b505050505050565b7f4e487b71000000000000000000000000000000000000000000000000000000005f52603260045260245ffd5b60805160a05160c051614ee56109dd5f395f8181611fa90152612eb801525f818161205e015261294b01525f81816129e60152612edc0152614ee55ff3fe608060405234801561000f575f5ffd5b5060043610610288575f3560e01c80637b1ca6a71161015a578063b0fb706d116100cc578063d5abeb0111610085578063d5abeb011461088c578063da284dcc146108aa578063dbb987f2146108c8578063dd62ed3e146108f8578063e613aa9f14610928578063fdaa3ebc1461094457610288565b8063b0fb706d14610794578063b9209e33146107c4578063bd023748146107f4578063be5f2d7c14610824578063beabacc814610854578063d09bdf871461087057610288565b80639972a5031161011e5780639972a503146106ac578063a50cce50146106dc578063a9059cbb1461070c578063ac6bc9551461073c578063ad2bb1b31461075a578063ae80db041461077657610288565b80637b1ca6a7146105e05780637e3479c2146106105780637ef12410146106405780638ec7fa481461067057806395d89b411461068e57610288565b80632bf76698116101fe5780634e6b558a116101b75780634e6b558a146104fa5780634f93208a14610516578063519f69a1146105465780636a1166891461057657806370a082311461059257806377bf90ef146105c257610288565b80632bf7669814610414578063313ce5671461044457806337fb940814610462578063382ca15e146104925780633c7e3b78146104ae57806340c10f19146104de57610288565b806318160ddd1161025057806318160ddd14610342578063186d9d8814610360578063213dd9fa1461037c57806323b872dd146103ac57806325d0545f146103dc57806328671421146103f857610288565b806306fdde031461028c578063095ea7b3146102aa5780630db28d70146102da5780630f7bf3ab146102f65780631304b9f914610326575b5f5ffd5b610294610974565b6040516102a19190614197565b60405180910390f35b6102c460048036038101906102bf9190614255565b610a04565b6040516102d191906142ad565b60405180910390f35b6102f460048036038101906102ef91906143f2565b610a26565b005b610310600480360381019061030b9190614255565b610bb2565b60405161031d919061445b565b60405180910390f35b610340600480360381019061033b9190614474565b610bfa565b005b61034a6111a0565b60405161035791906144ae565b60405180910390f35b61037a60048036038101906103759190614474565b6111a9565b005b61039660048036038101906103919190614474565b6112cc565b6040516103a391906144ae565b60405180910390f35b6103c660048036038101906103c191906144c7565b6112e1565b6040516103d391906142ad565b60405180910390f35b6103f660048036038101906103f19190614255565b6115e8565b005b610412600480360381019061040d9190614474565b611705565b005b61042e60048036038101906104299190614474565b611829565b60405161043b91906144ae565b60405180910390f35b61044c61183e565b6040516104599190614532565b60405180910390f35b61047c6004803603810190610477919061454b565b611846565b60405161048991906142ad565b60405180910390f35b6104ac60048036038101906104a79190614474565b611870565b005b6104c860048036038101906104c39190614474565b611e16565b6040516104d591906142ad565b60405180910390f35b6104f860048036038101906104f39190614255565b611e33565b005b610514600480360381019061050f9190614474565b612172565b005b610530600480360381019061052b9190614474565b612240565b60405161053d91906142ad565b60405180910390f35b610560600480360381019061055b9190614474565b61225d565b60405161056d91906144ae565b60405180910390f35b610590600480360381019061058b9190614474565b612272565b005b6105ac60048036038101906105a79190614474565b612395565b6040516105b991906144ae565b60405180910390f35b6105ca6123da565b6040516105d791906144ae565b60405180910390f35b6105fa60048036038101906105f59190614474565b6123e0565b60405161060791906144ae565b60405180910390f35b61062a60048036038101906106259190614474565b6123f5565b60405161063791906144ae565b60405180910390f35b61065a60048036038101906106559190614474565b61240a565b60405161066791906142ad565b60405180910390f35b610678612427565b60405161068591906144ae565b60405180910390f35b61069661242d565b6040516106a39190614197565b60405180910390f35b6106c660048036038101906106c19190614255565b6124bd565b6040516106d3919061445b565b60405180910390f35b6106f660048036038101906106f19190614474565b612505565b60405161070391906144ae565b60405180910390f35b61072660048036038101906107219190614255565b61251a565b60405161073391906142ad565b60405180910390f35b61074461281f565b60405161075191906144ae565b60405180910390f35b610774600480360381019061076f9190614474565b612825565b005b61077e612949565b60405161078b91906144ae565b60405180910390f35b6107ae60048036038101906107a9919061454b565b61296d565b6040516107bb91906142ad565b60405180910390f35b6107de60048036038101906107d99190614474565b612997565b6040516107eb91906142ad565b60405180910390f35b61080e60048036038101906108099190614474565b612abd565b60405161081b91906142ad565b60405180910390f35b61083e60048036038101906108399190614255565b612ada565b60405161084b919061445b565b60405180910390f35b61086e600480360381019061086991906144c7565b612b22565b005b61088a60048036038101906108859190614255565b612d99565b005b610894612eb6565b6040516108a191906144ae565b60405180910390f35b6108b2612eda565b6040516108bf91906144ae565b60405180910390f35b6108e260048036038101906108dd919061454b565b612efe565b6040516108ef91906142ad565b60405180910390f35b610912600480360381019061090d919061454b565b612f28565b60405161091f91906144ae565b60405180910390f35b610942600480360381019061093d9190614474565b612faa565b005b61095e60048036038101906109599190614474565b613550565b60405161096b91906142ad565b60405180910390f35b606060038054610983906145b6565b80601f01602080910402602001604051908101604052809291908181526020018280546109af906145b6565b80156109fa5780601f106109d1576101008083540402835291602001916109fa565b820191905f5260205f20905b8154815290600101906020018083116109dd57829003601f168201915b5050505050905090565b5f5f610a0e61356d565b9050610a1b818585613574565b600191505092915050565b5f3383604051602001610a3a9291906146e9565b6040516020818303038152906040528051906020012090505f81604051602001610a64919061479d565b6040516020818303038152906040528051906020012090505f610a90848361358690919063ffffffff16565b905060115f8273ffffffffffffffffffffffffffffffffffffffff1673ffffffffffffffffffffffffffffffffffffffff1681526020019081526020015f205f9054906101000a900460ff16610b1b576040517f08c379a0000000000000000000000000000000000000000000000000000000008152600401610b1290614832565b60405180910390fd5b8460125f3373ffffffffffffffffffffffffffffffffffffffff1673ffffffffffffffffffffffffffffffffffffffff1681526020019081526020015f20819055503373ffffffffffffffffffffffffffffffffffffffff167f201a5a9a3e3f6b0c73a6d63220a9d2ef703797c59033d36f0e63f2db8e32900786604051610ba391906144ae565b60405180910390a25050505050565b600e602052815f5260405f208181548110610bcb575f80fd5b905f5260205f20015f915091509054906101000a900473ffffffffffffffffffffffffffffffffffffffff1681565b60055f3373ffffffffffffffffffffffffffffffffffffffff1673ffffffffffffffffffffffffffffffffffffffff1681526020019081526020015f205f9054906101000a900460ff16610c83576040517f08c379a0000000000000000000000000000000000000000000000000000000008152600401610c7a9061489a565b60405180910390fd5b600b5f8273ffffffffffffffffffffffffffffffffffffffff1673ffffffffffffffffffffffffffffffffffffffff1681526020019081526020015f205f3373ffffffffffffffffffffffffffffffffffffffff1673ffffffffffffffffffffffffffffffffffffffff1681526020019081526020015f205f9054906101000a900460ff1615610d48576040517f08c379a0000000000000000000000000000000000000000000000000000000008152600401610d3f90614902565b60405180910390fd5b6001600b5f3373ffffffffffffffffffffffffffffffffffffffff1673ffffffffffffffffffffffffffffffffffffffff1681526020019081526020015f205f8373ffffffffffffffffffffffffffffffffffffffff1673ffffffffffffffffffffffffffffffffffffffff1681526020019081526020015f205f6101000a81548160ff021916908315150217905550600e5f8273ffffffffffffffffffffffffffffffffffffffff1673ffffffffffffffffffffffffffffffffffffffff1681526020019081526020015f2033908060018154018082558091505060019003905f5260205f20015f9091909190916101000a81548173ffffffffffffffffffffffffffffffffffffffff021916908373ffffffffffffffffffffffffffffffffffffffff1602179055506002600854610e82919061497a565b600e5f8373ffffffffffffffffffffffffffffffffffffffff1673ffffffffffffffffffffffffffffffffffffffff1681526020019081526020015f2080549050111561119d575f60055f8373ffffffffffffffffffffffffffffffffffffffff1673ffffffffffffffffffffffffffffffffffffffff1681526020019081526020015f205f9054906101000a900460ff161590508060055f8473ffffffffffffffffffffffffffffffffffffffff1673ffffffffffffffffffffffffffffffffffffffff1681526020019081526020015f205f6101000a81548160ff0219169083151502179055508015610f8d5760085f815480929190610f83906149aa565b9190505550610fa5565b60085f815480929190610f9f906149f1565b91905055505b5f5f90505b600e5f8473ffffffffffffffffffffffffffffffffffffffff1673ffffffffffffffffffffffffffffffffffffffff1681526020019081526020015f2080549050811015611104575f600b5f8573ffffffffffffffffffffffffffffffffffffffff1673ffffffffffffffffffffffffffffffffffffffff1681526020019081526020015f205f600e5f8773ffffffffffffffffffffffffffffffffffffffff1673ffffffffffffffffffffffffffffffffffffffff1681526020019081526020015f2084815481106110805761107f614a18565b5b905f5260205f20015f9054906101000a900473ffffffffffffffffffffffffffffffffffffffff1673ffffffffffffffffffffffffffffffffffffffff1673ffffffffffffffffffffffffffffffffffffffff1681526020019081526020015f205f6101000a81548160ff0219169083151502179055508080600101915050610faa565b50600e5f8373ffffffffffffffffffffffffffffffffffffffff1673ffffffffffffffffffffffffffffffffffffffff1681526020019081526020015f205f61114d91906140ee565b8173ffffffffffffffffffffffffffffffffffffffff167f1b2ddf956207feafced69ac8578eb2757ddb23e37f03c522de9ac54e93c780ad826040516111939190614a8f565b60405180910390a2505b50565b5f600254905090565b60065f3373ffffffffffffffffffffffffffffffffffffffff1673ffffffffffffffffffffffffffffffffffffffff1681526020019081526020015f205f9054906101000a900460ff16611232576040517f08c379a000000000000000000000000000000000000000000000000000000000815260040161122990614b05565b60405180910390fd5b5f60135f8373ffffffffffffffffffffffffffffffffffffffff1673ffffffffffffffffffffffffffffffffffffffff1681526020019081526020015f205f6101000a81548160ff0219169083151502179055508073ffffffffffffffffffffffffffffffffffffffff167f385b21b54e2348e690dec29e9741026142b02eaabfcc2fcb676cebcb7cd1653460405160405180910390a250565b6017602052805f5260405f205f915090505481565b5f826112ec81612997565b61132b576040517f08c379a000000000000000000000000000000000000000000000000000000000815260040161132290614b6d565b60405180910390fd5b5f60145f8773ffffffffffffffffffffffffffffffffffffffff1673ffffffffffffffffffffffffffffffffffffffff1681526020019081526020015f20541461156257426201518060165f8873ffffffffffffffffffffffffffffffffffffffff1673ffffffffffffffffffffffffffffffffffffffff1681526020019081526020015f20546113bc9190614b8b565b11611446575f60155f8773ffffffffffffffffffffffffffffffffffffffff1673ffffffffffffffffffffffffffffffffffffffff1681526020019081526020015f20819055504260165f8773ffffffffffffffffffffffffffffffffffffffff1673ffffffffffffffffffffffffffffffffffffffff1681526020019081526020015f20819055505b60145f8673ffffffffffffffffffffffffffffffffffffffff1673ffffffffffffffffffffffffffffffffffffffff1681526020019081526020015f20548360155f8873ffffffffffffffffffffffffffffffffffffffff1673ffffffffffffffffffffffffffffffffffffffff1681526020019081526020015f20546114cd9190614b8b565b111561150e576040517f08c379a000000000000000000000000000000000000000000000000000000000815260040161150590614c08565b60405180910390fd5b8260155f8773ffffffffffffffffffffffffffffffffffffffff1673ffffffffffffffffffffffffffffffffffffffff1681526020019081526020015f205f82825461155a9190614b8b565b925050819055505b5f61156e8686866135b0565b905080156115dc578473ffffffffffffffffffffffffffffffffffffffff168673ffffffffffffffffffffffffffffffffffffffff167f1b89874203ff7f0bba87c969ada3f32fda22ed38a6706d35199d21280c7811b1866040516115d391906144ae565b60405180910390a35b80925050509392505050565b60065f3373ffffffffffffffffffffffffffffffffffffffff1673ffffffffffffffffffffffffffffffffffffffff1681526020019081526020015f205f9054906101000a900460ff16611671576040517f08c379a000000000000000000000000000000000000000000000000000000000815260040161166890614b05565b60405180910390fd5b8060145f8473ffffffffffffffffffffffffffffffffffffffff1673ffffffffffffffffffffffffffffffffffffffff1681526020019081526020015f20819055508173ffffffffffffffffffffffffffffffffffffffff167fc4e2ac733c379cc940639bd2080726efb8cdc6061d39ed7d4a821210a3c0ea2d826040516116f991906144ae565b60405180910390a25050565b60075f3373ffffffffffffffffffffffffffffffffffffffff1673ffffffffffffffffffffffffffffffffffffffff1681526020019081526020015f205f9054906101000a900460ff1661178e576040517f08c379a000000000000000000000000000000000000000000000000000000000815260040161178590614c70565b60405180910390fd5b600160115f8373ffffffffffffffffffffffffffffffffffffffff1673ffffffffffffffffffffffffffffffffffffffff1681526020019081526020015f205f6101000a81548160ff0219169083151502179055508073ffffffffffffffffffffffffffffffffffffffff167fa885c0a202d9c728f3e159840be354fe62d3ba5a40e54fa169c3adcf08cf489960405160405180910390a250565b6015602052805f5260405f205f915090505481565b5f6012905090565b600d602052815f5260405f20602052805f5260405f205f915091509054906101000a900460ff1681565b60075f3373ffffffffffffffffffffffffffffffffffffffff1673ffffffffffffffffffffffffffffffffffffffff1681526020019081526020015f205f9054906101000a900460ff166118f9576040517f08c379a00000000000000000000000000000000000000000000000000000000081526004016118f090614c70565b60405180910390fd5b600d5f8273ffffffffffffffffffffffffffffffffffffffff1673ffffffffffffffffffffffffffffffffffffffff1681526020019081526020015f205f3373ffffffffffffffffffffffffffffffffffffffff1673ffffffffffffffffffffffffffffffffffffffff1681526020019081526020015f205f9054906101000a900460ff16156119be576040517f08c379a00000000000000000000000000000000000000000000000000000000081526004016119b590614902565b60405180910390fd5b6001600d5f3373ffffffffffffffffffffffffffffffffffffffff1673ffffffffffffffffffffffffffffffffffffffff1681526020019081526020015f205f8373ffffffffffffffffffffffffffffffffffffffff1673ffffffffffffffffffffffffffffffffffffffff1681526020019081526020015f205f6101000a81548160ff02191690831515021790555060105f8273ffffffffffffffffffffffffffffffffffffffff1673ffffffffffffffffffffffffffffffffffffffff1681526020019081526020015f2033908060018154018082558091505060019003905f5260205f20015f9091909190916101000a81548173ffffffffffffffffffffffffffffffffffffffff021916908373ffffffffffffffffffffffffffffffffffffffff1602179055506002600a54611af8919061497a565b60105f8373ffffffffffffffffffffffffffffffffffffffff1673ffffffffffffffffffffffffffffffffffffffff1681526020019081526020015f20805490501115611e13575f60075f8373ffffffffffffffffffffffffffffffffffffffff1673ffffffffffffffffffffffffffffffffffffffff1681526020019081526020015f205f9054906101000a900460ff161590508060075f8473ffffffffffffffffffffffffffffffffffffffff1673ffffffffffffffffffffffffffffffffffffffff1681526020019081526020015f205f6101000a81548160ff0219169083151502179055508015611c0357600a5f815480929190611bf9906149aa565b9190505550611c1b565b600a5f815480929190611c15906149f1565b91905055505b5f5f90505b60105f8473ffffffffffffffffffffffffffffffffffffffff1673ffffffffffffffffffffffffffffffffffffffff1681526020019081526020015f2080549050811015611d7a575f600d5f8573ffffffffffffffffffffffffffffffffffffffff1673ffffffffffffffffffffffffffffffffffffffff1681526020019081526020015f205f60105f8773ffffffffffffffffffffffffffffffffffffffff1673ffffffffffffffffffffffffffffffffffffffff1681526020019081526020015f208481548110611cf657611cf5614a18565b5b905f5260205f20015f9054906101000a900473ffffffffffffffffffffffffffffffffffffffff1673ffffffffffffffffffffffffffffffffffffffff1673ffffffffffffffffffffffffffffffffffffffff1681526020019081526020015f205f6101000a81548160ff0219169083151502179055508080600101915050611c20565b5060105f8373ffffffffffffffffffffffffffffffffffffffff1673ffffffffffffffffffffffffffffffffffffffff1681526020019081526020015f205f611dc391906140ee565b8173ffffffffffffffffffffffffffffffffffffffff167f1b2ddf956207feafced69ac8578eb2757ddb23e37f03c522de9ac54e93c780ad82604051611e099190614cd8565b60405180910390a2505b50565b6006602052805f5260405f205f915054906101000a900460ff1681565b60055f3373ffffffffffffffffffffffffffffffffffffffff1673ffffffffffffffffffffffffffffffffffffffff1681526020019081526020015f205f9054906101000a900460ff16611ebc576040517f08c379a0000000000000000000000000000000000000000000000000000000008152600401611eb39061489a565b60405180910390fd5b601860174262015180835f3373ffffffffffffffffffffffffffffffffffffffff1673ffffffffffffffffffffffffffffffffffffffff1681526020019081526020015f2054611f0c9190614b8b565b11611f94575f815f3373ffffffffffffffffffffffffffffffffffffffff1673ffffffffffffffffffffffffffffffffffffffff1681526020019081526020015f208190555042825f3373ffffffffffffffffffffffffffffffffffffffff1673ffffffffffffffffffffffffffffffffffffffff1681526020019081526020015f20819055505b82611f9d6111a0565b611fa79190614b8b565b7f00000000000000000000000000000000000000000000000000000000000000005f81146120135780821115612012576040517f08c379a000000000000000000000000000000000000000000000000000000000815260040161200990614c08565b60405180910390fd5b5b8561201d81612997565b61205c576040517f08c379a000000000000000000000000000000000000000000000000000000000815260040161205390614b6d565b60405180910390fd5b7f00000000000000000000000000000000000000000000000000000000000000008660175f3373ffffffffffffffffffffffffffffffffffffffff1673ffffffffffffffffffffffffffffffffffffffff1681526020019081526020015f20546120c69190614b8b565b1115612107576040517f08c379a00000000000000000000000000000000000000000000000000000000081526004016120fe90614d4e565b60405180910390fd5b61211187876135de565b61211b338761365d565b8673ffffffffffffffffffffffffffffffffffffffff167f3f2c9d57c068687834f0de942a9babb9e5acab57d516d3480a3c16ee165a42738760405161216191906144ae565b60405180910390a250505050505050565b60075f3373ffffffffffffffffffffffffffffffffffffffff1673ffffffffffffffffffffffffffffffffffffffff1681526020019081526020015f205f9054906101000a900460ff166121fb576040517f08c379a00000000000000000000000000000000000000000000000000000000081526004016121f290614c70565b60405180910390fd5b5f60125f8373ffffffffffffffffffffffffffffffffffffffff1673ffffffffffffffffffffffffffffffffffffffff1681526020019081526020015f208190555050565b6013602052805f5260405f205f915054906101000a900460ff1681565b6016602052805f5260405f205f915090505481565b60075f3373ffffffffffffffffffffffffffffffffffffffff1673ffffffffffffffffffffffffffffffffffffffff1681526020019081526020015f205f9054906101000a900460ff166122fb576040517f08c379a00000000000000000000000000000000000000000000000000000000081526004016122f290614c70565b60405180910390fd5b5f60115f8373ffffffffffffffffffffffffffffffffffffffff1673ffffffffffffffffffffffffffffffffffffffff1681526020019081526020015f205f6101000a81548160ff0219169083151502179055508073ffffffffffffffffffffffffffffffffffffffff167f5f4d9edfb10d99c2262b543b69b77a342522837e1a1bb3262717c2c04ecab5d560405160405180910390a250565b5f5f5f8373ffffffffffffffffffffffffffffffffffffffff1673ffffffffffffffffffffffffffffffffffffffff1681526020019081526020015f20549050919050565b60095481565b6018602052805f5260405f205f915090505481565b6014602052805f5260405f205f915090505481565b6011602052805f5260405f205f915054906101000a900460ff1681565b600a5481565b60606004805461243c906145b6565b80601f0160208091040260200160405190810160405280929190818152602001828054612468906145b6565b80156124b35780601f1061248a576101008083540402835291602001916124b3565b820191905f5260205f20905b81548152906001019060200180831161249657829003601f168201915b5050505050905090565b6010602052815f5260405f2081815481106124d6575f80fd5b905f5260205f20015f915091509054906101000a900473ffffffffffffffffffffffffffffffffffffffff1681565b6012602052805f5260405f205f915090505481565b5f8261252581612997565b612564576040517f08c379a000000000000000000000000000000000000000000000000000000000815260040161255b90614b6d565b60405180910390fd5b5f60145f3373ffffffffffffffffffffffffffffffffffffffff1673ffffffffffffffffffffffffffffffffffffffff1681526020019081526020015f20541461279b57426201518060165f3373ffffffffffffffffffffffffffffffffffffffff1673ffffffffffffffffffffffffffffffffffffffff1681526020019081526020015f20546125f59190614b8b565b1161267f575f60155f3373ffffffffffffffffffffffffffffffffffffffff1673ffffffffffffffffffffffffffffffffffffffff1681526020019081526020015f20819055504260165f3373ffffffffffffffffffffffffffffffffffffffff1673ffffffffffffffffffffffffffffffffffffffff1681526020019081526020015f20819055505b60145f3373ffffffffffffffffffffffffffffffffffffffff1673ffffffffffffffffffffffffffffffffffffffff1681526020019081526020015f20548360155f3373ffffffffffffffffffffffffffffffffffffffff1673ffffffffffffffffffffffffffffffffffffffff1681526020019081526020015f20546127069190614b8b565b1115612747576040517f08c379a000000000000000000000000000000000000000000000000000000000815260040161273e90614c08565b60405180910390fd5b8260155f3373ffffffffffffffffffffffffffffffffffffffff1673ffffffffffffffffffffffffffffffffffffffff1681526020019081526020015f205f8282546127939190614b8b565b925050819055505b5f6127a68585613790565b90508015612814578473ffffffffffffffffffffffffffffffffffffffff163373ffffffffffffffffffffffffffffffffffffffff167f1b89874203ff7f0bba87c969ada3f32fda22ed38a6706d35199d21280c7811b18660405161280b91906144ae565b60405180910390a35b809250505092915050565b60085481565b60065f3373ffffffffffffffffffffffffffffffffffffffff1673ffffffffffffffffffffffffffffffffffffffff1681526020019081526020015f205f9054906101000a900460ff166128ae576040517f08c379a00000000000000000000000000000000000000000000000000000000081526004016128a590614b05565b60405180910390fd5b600160135f8373ffffffffffffffffffffffffffffffffffffffff1673ffffffffffffffffffffffffffffffffffffffff1681526020019081526020015f205f6101000a81548160ff0219169083151502179055508073ffffffffffffffffffffffffffffffffffffffff167f71fa9c99da9552de60a9ccf693f5a91456cbb8c205c8e532b1f55339903543cf60405160405180910390a250565b7f000000000000000000000000000000000000000000000000000000000000000081565b600c602052815f5260405f20602052805f5260405f205f915091509054906101000a900460ff1681565b5f5f60125f8473ffffffffffffffffffffffffffffffffffffffff1673ffffffffffffffffffffffffffffffffffffffff1681526020019081526020015f2054036129e4575f9050612ab8565b7f000000000000000000000000000000000000000000000000000000000000000060125f8473ffffffffffffffffffffffffffffffffffffffff1673ffffffffffffffffffffffffffffffffffffffff1681526020019081526020015f2054612a4d9190614b8b565b421115612a5c575f9050612ab8565b60135f8373ffffffffffffffffffffffffffffffffffffffff1673ffffffffffffffffffffffffffffffffffffffff1681526020019081526020015f205f9054906101000a900460ff1615612ab3575f9050612ab8565b600190505b919050565b6007602052805f5260405f205f915054906101000a900460ff1681565b600f602052815f5260405f208181548110612af3575f80fd5b905f5260205f20015f915091509054906101000a900473ffffffffffffffffffffffffffffffffffffffff1681565b601660154262015180835f3373ffffffffffffffffffffffffffffffffffffffff1673ffffffffffffffffffffffffffffffffffffffff1681526020019081526020015f2054612b729190614b8b565b11612bfa575f815f3373ffffffffffffffffffffffffffffffffffffffff1673ffffffffffffffffffffffffffffffffffffffff1681526020019081526020015f208190555042825f3373ffffffffffffffffffffffffffffffffffffffff1673ffffffffffffffffffffffffffffffffffffffff1681526020019081526020015f20819055505b8260155f8773ffffffffffffffffffffffffffffffffffffffff1673ffffffffffffffffffffffffffffffffffffffff1681526020019081526020015f2054612c439190614b8b565b60145f8773ffffffffffffffffffffffffffffffffffffffff1673ffffffffffffffffffffffffffffffffffffffff1681526020019081526020015f20545f8114612ccc5780821115612ccb576040517f08c379a0000000000000000000000000000000000000000000000000000000008152600401612cc290614c08565b60405180910390fd5b5b85612cd681612997565b612d15576040517f08c379a0000000000000000000000000000000000000000000000000000000008152600401612d0c90614b6d565b60405180910390fd5b612d208888886137b2565b612d2a88876138a2565b8673ffffffffffffffffffffffffffffffffffffffff168873ffffffffffffffffffffffffffffffffffffffff167f1b89874203ff7f0bba87c969ada3f32fda22ed38a6706d35199d21280c7811b188604051612d8791906144ae565b60405180910390a35050505050505050565b60075f3373ffffffffffffffffffffffffffffffffffffffff1673ffffffffffffffffffffffffffffffffffffffff1681526020019081526020015f205f9054906101000a900460ff16612e22576040517f08c379a0000000000000000000000000000000000000000000000000000000008152600401612e1990614c70565b60405180910390fd5b8060125f8473ffffffffffffffffffffffffffffffffffffffff1673ffffffffffffffffffffffffffffffffffffffff1681526020019081526020015f20819055508173ffffffffffffffffffffffffffffffffffffffff167f201a5a9a3e3f6b0c73a6d63220a9d2ef703797c59033d36f0e63f2db8e32900782604051612eaa91906144ae565b60405180910390a25050565b7f000000000000000000000000000000000000000000000000000000000000000081565b7f000000000000000000000000000000000000000000000000000000000000000081565b600b602052815f5260405f20602052805f5260405f205f915091509054906101000a900460ff1681565b5f60015f8473ffffffffffffffffffffffffffffffffffffffff1673ffffffffffffffffffffffffffffffffffffffff1681526020019081526020015f205f8373ffffffffffffffffffffffffffffffffffffffff1673ffffffffffffffffffffffffffffffffffffffff1681526020019081526020015f2054905092915050565b60065f3373ffffffffffffffffffffffffffffffffffffffff1673ffffffffffffffffffffffffffffffffffffffff1681526020019081526020015f205f9054906101000a900460ff16613033576040517f08c379a000000000000000000000000000000000000000000000000000000000815260040161302a90614b05565b60405180910390fd5b600c5f8273ffffffffffffffffffffffffffffffffffffffff1673ffffffffffffffffffffffffffffffffffffffff1681526020019081526020015f205f3373ffffffffffffffffffffffffffffffffffffffff1673ffffffffffffffffffffffffffffffffffffffff1681526020019081526020015f205f9054906101000a900460ff16156130f8576040517f08c379a00000000000000000000000000000000000000000000000000000000081526004016130ef90614902565b60405180910390fd5b6001600c5f3373ffffffffffffffffffffffffffffffffffffffff1673ffffffffffffffffffffffffffffffffffffffff1681526020019081526020015f205f8373ffffffffffffffffffffffffffffffffffffffff1673ffffffffffffffffffffffffffffffffffffffff1681526020019081526020015f205f6101000a81548160ff021916908315150217905550600f5f8273ffffffffffffffffffffffffffffffffffffffff1673ffffffffffffffffffffffffffffffffffffffff1681526020019081526020015f2033908060018154018082558091505060019003905f5260205f20015f9091909190916101000a81548173ffffffffffffffffffffffffffffffffffffffff021916908373ffffffffffffffffffffffffffffffffffffffff1602179055506002600954613232919061497a565b600f5f8373ffffffffffffffffffffffffffffffffffffffff1673ffffffffffffffffffffffffffffffffffffffff1681526020019081526020015f2080549050111561354d575f60065f8373ffffffffffffffffffffffffffffffffffffffff1673ffffffffffffffffffffffffffffffffffffffff1681526020019081526020015f205f9054906101000a900460ff161590508060065f8473ffffffffffffffffffffffffffffffffffffffff1673ffffffffffffffffffffffffffffffffffffffff1681526020019081526020015f205f6101000a81548160ff021916908315150217905550801561333d5760095f815480929190613333906149aa565b9190505550613355565b60095f81548092919061334f906149f1565b91905055505b5f5f90505b600f5f8473ffffffffffffffffffffffffffffffffffffffff1673ffffffffffffffffffffffffffffffffffffffff1681526020019081526020015f20805490508110156134b4575f600c5f8573ffffffffffffffffffffffffffffffffffffffff1673ffffffffffffffffffffffffffffffffffffffff1681526020019081526020015f205f600f5f8773ffffffffffffffffffffffffffffffffffffffff1673ffffffffffffffffffffffffffffffffffffffff1681526020019081526020015f2084815481106134305761342f614a18565b5b905f5260205f20015f9054906101000a900473ffffffffffffffffffffffffffffffffffffffff1673ffffffffffffffffffffffffffffffffffffffff1673ffffffffffffffffffffffffffffffffffffffff1681526020019081526020015f205f6101000a81548160ff021916908315150217905550808060010191505061335a565b50600f5f8373ffffffffffffffffffffffffffffffffffffffff1673ffffffffffffffffffffffffffffffffffffffff1681526020019081526020015f205f6134fd91906140ee565b8173ffffffffffffffffffffffffffffffffffffffff167f1b2ddf956207feafced69ac8578eb2757ddb23e37f03c522de9ac54e93c780ad826040516135439190614db6565b60405180910390a2505b50565b6005602052805f5260405f205f915054906101000a900460ff1681565b5f33905090565b61358183838360016139d5565b505050565b5f5f5f5f6135948686613ba4565b9250925092506135a48282613bf9565b82935050505092915050565b5f5f6135ba61356d565b90506135c7858285613d5b565b6135d28585856137b2565b60019150509392505050565b5f73ffffffffffffffffffffffffffffffffffffffff168273ffffffffffffffffffffffffffffffffffffffff160361364e575f6040517fec442f05000000000000000000000000000000000000000000000000000000008152600401613645919061445b565b60405180910390fd5b6136595f8383613dee565b5050565b426201518060185f8573ffffffffffffffffffffffffffffffffffffffff1673ffffffffffffffffffffffffffffffffffffffff1681526020019081526020015f20546136aa9190614b8b565b11613738578060175f8473ffffffffffffffffffffffffffffffffffffffff1673ffffffffffffffffffffffffffffffffffffffff1681526020019081526020015f20819055504260185f8473ffffffffffffffffffffffffffffffffffffffff1673ffffffffffffffffffffffffffffffffffffffff1681526020019081526020015f208190555061378c565b8060175f8473ffffffffffffffffffffffffffffffffffffffff1673ffffffffffffffffffffffffffffffffffffffff1681526020019081526020015f205f8282546137849190614b8b565b925050819055505b5050565b5f5f61379a61356d565b90506137a78185856137b2565b600191505092915050565b5f73ffffffffffffffffffffffffffffffffffffffff168373ffffffffffffffffffffffffffffffffffffffff1603613822575f6040517f96c6fd1e000000000000000000000000000000000000000000000000000000008152600401613819919061445b565b60405180910390fd5b5f73ffffffffffffffffffffffffffffffffffffffff168273ffffffffffffffffffffffffffffffffffffffff1603613892575f6040517fec442f05000000000000000000000000000000000000000000000000000000008152600401613889919061445b565b60405180910390fd5b61389d838383613dee565b505050565b426201518060165f8573ffffffffffffffffffffffffffffffffffffffff1673ffffffffffffffffffffffffffffffffffffffff1681526020019081526020015f20546138ef9190614b8b565b1161397d578060155f8473ffffffffffffffffffffffffffffffffffffffff1673ffffffffffffffffffffffffffffffffffffffff1681526020019081526020015f20819055504260165f8473ffffffffffffffffffffffffffffffffffffffff1673ffffffffffffffffffffffffffffffffffffffff1681526020019081526020015f20819055506139d1565b8060155f8473ffffffffffffffffffffffffffffffffffffffff1673ffffffffffffffffffffffffffffffffffffffff1681526020019081526020015f205f8282546139c99190614b8b565b925050819055505b5050565b5f73ffffffffffffffffffffffffffffffffffffffff168473ffffffffffffffffffffffffffffffffffffffff1603613a45575f6040517fe602df05000000000000000000000000000000000000000000000000000000008152600401613a3c919061445b565b60405180910390fd5b5f73ffffffffffffffffffffffffffffffffffffffff168373ffffffffffffffffffffffffffffffffffffffff1603613ab5575f6040517f94280d62000000000000000000000000000000000000000000000000000000008152600401613aac919061445b565b60405180910390fd5b8160015f8673ffffffffffffffffffffffffffffffffffffffff1673ffffffffffffffffffffffffffffffffffffffff1681526020019081526020015f205f8573ffffffffffffffffffffffffffffffffffffffff1673ffffffffffffffffffffffffffffffffffffffff1681526020019081526020015f20819055508015613b9e578273ffffffffffffffffffffffffffffffffffffffff168473ffffffffffffffffffffffffffffffffffffffff167f8c5be1e5ebec7d5bd14f71427d1e84f3dd0314c0f7b2291e5b200ac8c7c3b92584604051613b9591906144ae565b60405180910390a35b50505050565b5f5f5f6041845103613be4575f5f5f602087015192506040870151915060608701515f1a9050613bd688828585614007565b955095509550505050613bf2565b5f600285515f1b9250925092505b9250925092565b5f6003811115613c0c57613c0b614de2565b5b826003811115613c1f57613c1e614de2565b5b0315613d575760016003811115613c3957613c38614de2565b5b826003811115613c4c57613c4b614de2565b5b03613c83576040517ff645eedf00000000000000000000000000000000000000000000000000000000815260040160405180910390fd5b60026003811115613c9757613c96614de2565b5b826003811115613caa57613ca9614de2565b5b03613cee57805f1c6040517ffce698f7000000000000000000000000000000000000000000000000000000008152600401613ce591906144ae565b60405180910390fd5b600380811115613d0157613d00614de2565b5b826003811115613d1457613d13614de2565b5b03613d5657806040517fd78bce0c000000000000000000000000000000000000000000000000000000008152600401613d4d9190614e1e565b60405180910390fd5b5b5050565b5f613d668484612f28565b90507fffffffffffffffffffffffffffffffffffffffffffffffffffffffffffffffff811015613de85781811015613dd9578281836040517ffb8f41b2000000000000000000000000000000000000000000000000000000008152600401613dd093929190614e37565b60405180910390fd5b613de784848484035f6139d5565b5b50505050565b5f73ffffffffffffffffffffffffffffffffffffffff168373ffffffffffffffffffffffffffffffffffffffff1603613e3e578060025f828254613e329190614b8b565b92505081905550613f0c565b5f5f5f8573ffffffffffffffffffffffffffffffffffffffff1673ffffffffffffffffffffffffffffffffffffffff1681526020019081526020015f2054905081811015613ec7578381836040517fe450d38c000000000000000000000000000000000000000000000000000000008152600401613ebe93929190614e37565b60405180910390fd5b8181035f5f8673ffffffffffffffffffffffffffffffffffffffff1673ffffffffffffffffffffffffffffffffffffffff1681526020019081526020015f2081905550505b5f73ffffffffffffffffffffffffffffffffffffffff168273ffffffffffffffffffffffffffffffffffffffff1603613f53578060025f8282540392505081905550613f9d565b805f5f8473ffffffffffffffffffffffffffffffffffffffff1673ffffffffffffffffffffffffffffffffffffffff1681526020019081526020015f205f82825401925050819055505b8173ffffffffffffffffffffffffffffffffffffffff168373ffffffffffffffffffffffffffffffffffffffff167fddf252ad1be2c89b69c2b068fc378daa952ba7f163c4a11628f55a4df523b3ef83604051613ffa91906144ae565b60405180910390a3505050565b5f5f5f7f7fffffffffffffffffffffffffffffff5d576e7357a4501ddfe92f46681b20a0845f1c1115614043575f6003859250925092506140e4565b5f6001888888886040515f81526020016040526040516140669493929190614e6c565b6020604051602081039080840390855afa158015614086573d5f5f3e3d5ffd5b5050506020604051035190505f73ffffffffffffffffffffffffffffffffffffffff168173ffffffffffffffffffffffffffffffffffffffff16036140d7575f60015f5f1b935093509350506140e4565b805f5f5f1b935093509350505b9450945094915050565b5080545f8255905f5260205f2090810190614109919061410c565b50565b5b80821115614123575f815f90555060010161410d565b5090565b5f81519050919050565b5f82825260208201905092915050565b8281835e5f83830152505050565b5f601f19601f8301169050919050565b5f61416982614127565b6141738185614131565b9350614183818560208601614141565b61418c8161414f565b840191505092915050565b5f6020820190508181035f8301526141af818461415f565b905092915050565b5f604051905090565b5f5ffd5b5f5ffd5b5f73ffffffffffffffffffffffffffffffffffffffff82169050919050565b5f6141f1826141c8565b9050919050565b614201816141e7565b811461420b575f5ffd5b50565b5f8135905061421c816141f8565b92915050565b5f819050919050565b61423481614222565b811461423e575f5ffd5b50565b5f8135905061424f8161422b565b92915050565b5f5f6040838503121561426b5761426a6141c0565b5b5f6142788582860161420e565b925050602061428985828601614241565b9150509250929050565b5f8115159050919050565b6142a781614293565b82525050565b5f6020820190506142c05f83018461429e565b92915050565b5f5ffd5b5f5ffd5b7f4e487b71000000000000000000000000000000000000000000000000000000005f52604160045260245ffd5b6143048261414f565b810181811067ffffffffffffffff82111715614323576143226142ce565b5b80604052505050565b5f6143356141b7565b905061434182826142fb565b919050565b5f67ffffffffffffffff8211156143605761435f6142ce565b5b6143698261414f565b9050602081019050919050565b828183375f83830152505050565b5f61439661439184614346565b61432c565b9050828152602081018484840111156143b2576143b16142ca565b5b6143bd848285614376565b509392505050565b5f82601f8301126143d9576143d86142c6565b5b81356143e9848260208601614384565b91505092915050565b5f5f60408385031215614408576144076141c0565b5b5f61441585828601614241565b925050602083013567ffffffffffffffff811115614436576144356141c4565b5b614442858286016143c5565b9150509250929050565b614455816141e7565b82525050565b5f60208201905061446e5f83018461444c565b92915050565b5f60208284031215614489576144886141c0565b5b5f6144968482850161420e565b91505092915050565b6144a881614222565b82525050565b5f6020820190506144c15f83018461449f565b92915050565b5f5f5f606084860312156144de576144dd6141c0565b5b5f6144eb8682870161420e565b93505060206144fc8682870161420e565b925050604061450d86828701614241565b9150509250925092565b5f60ff82169050919050565b61452c81614517565b82525050565b5f6020820190506145455f830184614523565b92915050565b5f5f60408385031215614561576145606141c0565b5b5f61456e8582860161420e565b925050602061457f8582860161420e565b9150509250929050565b7f4e487b71000000000000000000000000000000000000000000000000000000005f52602260045260245ffd5b5f60028204905060018216806145cd57607f821691505b6020821081036145e0576145df614589565b5b50919050565b5f81905092915050565b7f55736572207769746820616464726573732000000000000000000000000000005f82015250565b5f6146246012836145e6565b915061462f826145f0565b601282019050919050565b5f8160601b9050919050565b5f6146508261463a565b9050919050565b5f61466182614646565b9050919050565b614679614674826141e7565b614657565b82525050565b7f20686173207665726966696564207468656972206964656e74697479206174205f82015250565b5f6146b36020836145e6565b91506146be8261467f565b602082019050919050565b5f819050919050565b6146e36146de82614222565b6146c9565b82525050565b5f6146f382614618565b91506146ff8285614668565b60148201915061470e826146a7565b915061471a82846146d2565b6020820191508190509392505050565b7f19457468657265756d205369676e6564204d6573736167653a0a3332000000005f82015250565b5f61475e601c836145e6565b91506147698261472a565b601c82019050919050565b5f819050919050565b5f819050919050565b61479761479282614774565b61477d565b82525050565b5f6147a782614752565b91506147b38284614786565b60208201915081905092915050565b7f496e76616c6964206964656e746974792070726f7669646572207369676e61745f8201527f7572650000000000000000000000000000000000000000000000000000000000602082015250565b5f61481c602383614131565b9150614827826147c2565b604082019050919050565b5f6020820190508181035f83015261484981614810565b9050919050565b7f4e6f742061206d696e74696e672061646d696e000000000000000000000000005f82015250565b5f614884601383614131565b915061488f82614850565b602082019050919050565b5f6020820190508181035f8301526148b181614878565b9050919050565b7f416c726561647920766f746564000000000000000000000000000000000000005f82015250565b5f6148ec600d83614131565b91506148f7826148b8565b602082019050919050565b5f6020820190508181035f830152614919816148e0565b9050919050565b7f4e487b71000000000000000000000000000000000000000000000000000000005f52601260045260245ffd5b7f4e487b71000000000000000000000000000000000000000000000000000000005f52601160045260245ffd5b5f61498482614222565b915061498f83614222565b92508261499f5761499e614920565b5b828204905092915050565b5f6149b482614222565b91507fffffffffffffffffffffffffffffffffffffffffffffffffffffffffffffffff82036149e6576149e561494d565b5b600182019050919050565b5f6149fb82614222565b91505f8203614a0d57614a0c61494d565b5b600182039050919050565b7f4e487b71000000000000000000000000000000000000000000000000000000005f52603260045260245ffd5b7f6d696e74696e67000000000000000000000000000000000000000000000000005f82015250565b5f614a79600783614131565b9150614a8482614a45565b602082019050919050565b5f6040820190508181035f830152614aa681614a6d565b9050614ab5602083018461429e565b92915050565b7f4e6f742061207265737472696374696f6e2061646d696e0000000000000000005f82015250565b5f614aef601783614131565b9150614afa82614abb565b602082019050919050565b5f6020820190508181035f830152614b1c81614ae3565b9050919050565b7f4964656e74697479206e6f7420766572696669656400000000000000000000005f82015250565b5f614b57601583614131565b9150614b6282614b23565b602082019050919050565b5f6020820190508181035f830152614b8481614b4b565b9050919050565b5f614b9582614222565b9150614ba083614222565b9250828201905080821115614bb857614bb761494d565b5b92915050565b7f45786365656473206461696c79206c696d6974000000000000000000000000005f82015250565b5f614bf2601383614131565b9150614bfd82614bbe565b602082019050919050565b5f6020820190508181035f830152614c1f81614be6565b9050919050565b7f4e6f7420616e206964656e746974792070726f76696465722061646d696e00005f82015250565b5f614c5a601e83614131565b9150614c6582614c26565b602082019050919050565b5f6020820190508181035f830152614c8781614c4e565b9050919050565b7f6964656e7469747950726f7669646572000000000000000000000000000000005f82015250565b5f614cc2601083614131565b9150614ccd82614c8e565b602082019050919050565b5f6040820190508181035f830152614cef81614cb6565b9050614cfe602083018461429e565b92915050565b7f45786365656473206461696c79206d696e74206c696d697400000000000000005f82015250565b5f614d38601883614131565b9150614d4382614d04565b602082019050919050565b5f6020820190508181035f830152614d6581614d2c565b9050919050565b7f7265737472696374696f6e0000000000000000000000000000000000000000005f82015250565b5f614da0600b83614131565b9150614dab82614d6c565b602082019050919050565b5f6040820190508181035f830152614dcd81614d94565b9050614ddc602083018461429e565b92915050565b7f4e487b71000000000000000000000000000000000000000000000000000000005f52602160045260245ffd5b614e1881614774565b82525050565b5f602082019050614e315f830184614e0f565b92915050565b5f606082019050614e4a5f83018661444c565b614e57602083018561449f565b614e64604083018461449f565b949350505050565b5f608082019050614e7f5f830187614e0f565b614e8c6020830186614523565b614e996040830185614e0f565b614ea66060830184614e0f565b9594505050505056fea2646970667358221220abe2c44bd77e997b609592a752b0085701526e809edd96cca27724a3f6421b9464736f6c634300081d0033","linkReferences":{}},"methodIdentifiers":{"addIdentityProvider(address)":"28671421","addVerifiedAddress(address,uint256)":"d09bdf87","allowance(address,address)":"dd62ed3e","approve(address,uint256)":"095ea7b3","balanceOf(address)":"70a08231","blockAddress(address)":"ad2bb1b3","blockedAddresses(address)":"4f93208a","dailyMintedAmount(address)":"213dd9fa","dailyTransferLimit(address)":"7e3479c2","dailyTransferredAmount(address)":"2bf76698","decimals()":"313ce567","expirationTime()":"da284dcc","idpAdminCount()":"8ec7fa48","idpAdminVotes(address,address)":"37fb9408","idpAdminVotesList(address,uint256)":"9972a503","idpAdmins(address)":"bd023748","isVerified(address)":"b9209e33","lastDailyMintResetTimestamp(address)":"7b1ca6a7","lastTransferResetTimestamp(address)":"519f69a1","maxDailyMint()":"ae80db04","maxSupply()":"d5abeb01","mint(address,uint256)":"40c10f19","mintinAdminVotes(address,address)":"dbb987f2","mintingAdminCount()":"ac6bc955","mintingAdminVotesList(address,uint256)":"0f7bf3ab","mintingAdmins(address)":"fdaa3ebc","name()":"06fdde03","removeIdentityProvider(address)":"6a116689","removeVerifiedAddress(address)":"4e6b558a","restrAdminCount()":"77bf90ef","restrAdminVotes(address,address)":"b0fb706d","restrAdminVotesList(address,uint256)":"be5f2d7c","restrAdmins(address)":"3c7e3b78","setDailyTransferLimit(address,uint256)":"25d0545f","symbol()":"95d89b41","totalSupply()":"18160ddd","transfer(address,address,uint256)":"beabacc8","transfer(address,uint256)":"a9059cbb","transferFrom(address,address,uint256)":"23b872dd","trustedIdentityProviders(address)":"7ef12410","unblockAddress(address)":"186d9d88","verifiedAddresses(address)":"a50cce50","verifyIdentity(uint256,bytes)":"0db28d70","voteIDPAdmin(address)":"382ca15e","voteMintingAdmin(address)":"1304b9f9","voteRestrAdmin(address)":"e613aa9f"},"id":23}